{
  "contractName": "rooms",
  "abi": [
    {
      "inputs": [
        {
          "internalType": "address",
          "name": "customer",
          "type": "address"
        },
        {
          "internalType": "string",
          "name": "aadhar",
          "type": "string"
        },
        {
          "internalType": "string",
          "name": "city",
          "type": "string"
        },
        {
          "internalType": "uint256",
          "name": "noofrooms",
          "type": "uint256"
        },
        {
          "internalType": "uint256",
          "name": "noofdays",
          "type": "uint256"
        },
        {
          "internalType": "string",
          "name": "date",
          "type": "string"
        },
        {
          "internalType": "string",
          "name": "noofadults",
          "type": "string"
        }
      ],
      "name": "roomrequest",
      "outputs": [],
      "stateMutability": "nonpayable",
      "type": "function"
    },
    {
      "inputs": [],
      "name": "viewrequests",
      "outputs": [
        {
          "internalType": "uint256[]",
          "name": "",
          "type": "uint256[]"
        },
        {
          "internalType": "address[]",
          "name": "",
          "type": "address[]"
        },
        {
          "internalType": "string[]",
          "name": "",
          "type": "string[]"
        },
        {
          "internalType": "string[]",
          "name": "",
          "type": "string[]"
        },
        {
          "internalType": "uint256[]",
          "name": "",
          "type": "uint256[]"
        },
        {
          "internalType": "uint256[]",
          "name": "",
          "type": "uint256[]"
        },
        {
          "internalType": "string[]",
          "name": "",
          "type": "string[]"
        },
        {
          "internalType": "string[]",
          "name": "",
          "type": "string[]"
        },
        {
          "internalType": "uint256[][]",
          "name": "",
          "type": "uint256[][]"
        }
      ],
      "stateMutability": "view",
      "type": "function",
      "constant": true
    },
    {
      "inputs": [
        {
          "internalType": "uint256",
          "name": "roomreq",
          "type": "uint256"
        },
        {
          "internalType": "uint256[]",
          "name": "id",
          "type": "uint256[]"
        }
      ],
      "name": "allocateroom",
      "outputs": [],
      "stateMutability": "nonpayable",
      "type": "function"
    },
    {
      "inputs": [],
      "name": "viewroomstatus",
      "outputs": [
        {
          "internalType": "uint256[]",
          "name": "",
          "type": "uint256[]"
        }
      ],
      "stateMutability": "view",
      "type": "function",
      "constant": true
    },
    {
      "inputs": [
        {
          "internalType": "uint256",
          "name": "roomreq",
          "type": "uint256"
        }
      ],
      "name": "vacateroom",
      "outputs": [],
      "stateMutability": "nonpayable",
      "type": "function"
    }
  ],
  "bytecode": "0x608060405260008055600a8055604051806101400160405280600060ff168152602001600060ff168152602001600060ff168152602001600060ff168152602001600060ff168152602001600060ff168152602001600060ff168152602001600060ff168152602001600060ff168152602001600060ff16815250600b90600a6200008c929190620000a1565b503480156200009a57600080fd5b5062000117565b828054828255906000526020600020908101928215620000e5579160200282015b82811115620000e4578251829060ff16905591602001919060010190620000c2565b5b509050620000f49190620000f8565b5090565b5b8082111562000113576000816000905550600101620000f9565b5090565b61197880620001276000396000f3fe608060405234801561001057600080fd5b50600436106100575760003560e01c80630f1195961461005c57806357dbc3a414610078578063699ae9e114610094578063818f086a146100b2578063b2c0182e146100d8575b600080fd5b61007660048036038101906100719190610e17565b6100f4565b005b610092600480360381019061008d9190610ff1565b610313565b005b61009c610405565b6040516100a9919061110b565b60405180910390f35b6100ba61045d565b6040516100cf9998979695949392919061145d565b60405180910390f35b6100f260048036038101906100ed9190611529565b6109fd565b005b60016000808282546101069190611585565b92505081905550600960005490806001815401808255809150506001900390600052602060002001600090919091909150556001879080600181540180825580915050600190039060005260206000200160009091909190916101000a81548173ffffffffffffffffffffffffffffffffffffffff021916908373ffffffffffffffffffffffffffffffffffffffff1602179055506002869080600181540180825580915050600190039060005260206000200160009091909190915090816101cf91906117c5565b5060038590806001815401808255809150506001900390600052602060002001600090919091909150908161020491906117c5565b506004849080600181540180825580915050600190039060005260206000200160009091909190915055600583908060018154018082558091505060019003906000526020600020016000909190919091505560068290806001815401808255809150506001900390600052602060002001600090919091909150908161028b91906117c5565b506007819080600181540180825580915050600190039060005260206000200160009091909190915090816102c091906117c5565b5060086040518060200160405280600060ff1681525090806001815401808255809150506001900390600052602060002001600090919091909150906001610309929190610b6d565b5050505050505050565b600080600091505b600980549050821015610394576009828154811061033c5761033b611897565b5b9060005260206000200154840361038157826008838154811061036257610361611897565b5b90600052602060002001908051906020019061037f929190610bbf565b505b818061038c906118c6565b92505061031b565b600090505b82518110156103ff576001600b60018584815181106103bb576103ba611897565b5b60200260200101516103cd919061190e565b815481106103de576103dd611897565b5b906000526020600020018190555080806103f7906118c6565b915050610399565b50505050565b6060600b80548060200260200160405190810160405280929190818152602001828054801561045357602002820191906000526020600020905b81548152602001906001019080831161043f575b5050505050905090565b6060806060806060806060806060600960016002600360046005600660076008888054806020026020016040519081016040528092919081815260200182805480156104c857602002820191906000526020600020905b8154815260200190600101908083116104b4575b505050505098508780548060200260200160405190810160405280929190818152602001828054801561055057602002820191906000526020600020905b8160009054906101000a900473ffffffffffffffffffffffffffffffffffffffff1673ffffffffffffffffffffffffffffffffffffffff1681526020019060010190808311610506575b5050505050975086805480602002602001604051908101604052809291908181526020016000905b82821015610624578382906000526020600020018054610597906115e8565b80601f01602080910402602001604051908101604052809291908181526020018280546105c3906115e8565b80156106105780601f106105e557610100808354040283529160200191610610565b820191906000526020600020905b8154815290600101906020018083116105f357829003601f168201915b505050505081526020019060010190610578565b50505050965085805480602002602001604051908101604052809291908181526020016000905b828210156106f757838290600052602060002001805461066a906115e8565b80601f0160208091040260200160405190810160405280929190818152602001828054610696906115e8565b80156106e35780601f106106b8576101008083540402835291602001916106e3565b820191906000526020600020905b8154815290600101906020018083116106c657829003601f168201915b50505050508152602001906001019061064b565b5050505095508480548060200260200160405190810160405280929190818152602001828054801561074857602002820191906000526020600020905b815481526020019060010190808311610734575b505050505094508380548060200260200160405190810160405280929190818152602001828054801561079a57602002820191906000526020600020905b815481526020019060010190808311610786575b5050505050935082805480602002602001604051908101604052809291908181526020016000905b8282101561086e5783829060005260206000200180546107e1906115e8565b80601f016020809104026020016040519081016040528092919081815260200182805461080d906115e8565b801561085a5780601f1061082f5761010080835404028352916020019161085a565b820191906000526020600020905b81548152906001019060200180831161083d57829003601f168201915b5050505050815260200190600101906107c2565b50505050925081805480602002602001604051908101604052809291908181526020016000905b828210156109415783829060005260206000200180546108b4906115e8565b80601f01602080910402602001604051908101604052809291908181526020018280546108e0906115e8565b801561092d5780601f106109025761010080835404028352916020019161092d565b820191906000526020600020905b81548152906001019060200180831161091057829003601f168201915b505050505081526020019060010190610895565b50505050915080805480602002602001604051908101604052809291908181526020016000905b828210156109da578382906000526020600020018054806020026020016040519081016040528092919081815260200182805480156109c657602002820191906000526020600020905b8154815260200190600101908083116109b2575b505050505081526020019060010190610968565b505050509050985098509850985098509850985098509850909192939495969798565b6000806060600092505b600980549050831015610afc5760098381548110610a2857610a27611897565b5b90600052602060002001548403610ae95760088381548110610a4d57610a4c611897565b5b90600052602060002001805480602002602001604051908101604052809291908181526020018280548015610aa157602002820191906000526020600020905b815481526020019060010190808311610a8d575b505050505090506040518060200160405280606460ff1681525060088481548110610acf57610ace611897565b5b90600052602060002001906001610ae7929190610b6d565b505b8280610af4906118c6565b935050610a07565b600091505b8051821015610b67576000600b6001838581518110610b2357610b22611897565b5b6020026020010151610b35919061190e565b81548110610b4657610b45611897565b5b90600052602060002001819055508180610b5f906118c6565b925050610b01565b50505050565b828054828255906000526020600020908101928215610bae579160200282015b82811115610bad578251829060ff16905591602001919060010190610b8d565b5b509050610bbb9190610c0c565b5090565b828054828255906000526020600020908101928215610bfb579160200282015b82811115610bfa578251825591602001919060010190610bdf565b5b509050610c089190610c0c565b5090565b5b80821115610c25576000816000905550600101610c0d565b5090565b6000604051905090565b600080fd5b600080fd5b600073ffffffffffffffffffffffffffffffffffffffff82169050919050565b6000610c6882610c3d565b9050919050565b610c7881610c5d565b8114610c8357600080fd5b50565b600081359050610c9581610c6f565b92915050565b600080fd5b600080fd5b6000601f19601f8301169050919050565b7f4e487b7100000000000000000000000000000000000000000000000000000000600052604160045260246000fd5b610cee82610ca5565b810181811067ffffffffffffffff82111715610d0d57610d0c610cb6565b5b80604052505050565b6000610d20610c29565b9050610d2c8282610ce5565b919050565b600067ffffffffffffffff821115610d4c57610d4b610cb6565b5b610d5582610ca5565b9050602081019050919050565b82818337600083830152505050565b6000610d84610d7f84610d31565b610d16565b905082815260208101848484011115610da057610d9f610ca0565b5b610dab848285610d62565b509392505050565b600082601f830112610dc857610dc7610c9b565b5b8135610dd8848260208601610d71565b91505092915050565b6000819050919050565b610df481610de1565b8114610dff57600080fd5b50565b600081359050610e1181610deb565b92915050565b600080600080600080600060e0888a031215610e3657610e35610c33565b5b6000610e448a828b01610c86565b975050602088013567ffffffffffffffff811115610e6557610e64610c38565b5b610e718a828b01610db3565b965050604088013567ffffffffffffffff811115610e9257610e91610c38565b5b610e9e8a828b01610db3565b9550506060610eaf8a828b01610e02565b9450506080610ec08a828b01610e02565b93505060a088013567ffffffffffffffff811115610ee157610ee0610c38565b5b610eed8a828b01610db3565b92505060c088013567ffffffffffffffff811115610f0e57610f0d610c38565b5b610f1a8a828b01610db3565b91505092959891949750929550565b600067ffffffffffffffff821115610f4457610f43610cb6565b5b602082029050602081019050919050565b600080fd5b6000610f6d610f6884610f29565b610d16565b90508083825260208201905060208402830185811115610f9057610f8f610f55565b5b835b81811015610fb95780610fa58882610e02565b845260208401935050602081019050610f92565b5050509392505050565b600082601f830112610fd857610fd7610c9b565b5b8135610fe8848260208601610f5a565b91505092915050565b6000806040838503121561100857611007610c33565b5b600061101685828601610e02565b925050602083013567ffffffffffffffff81111561103757611036610c38565b5b61104385828601610fc3565b9150509250929050565b600081519050919050565b600082825260208201905092915050565b6000819050602082019050919050565b61108281610de1565b82525050565b60006110948383611079565b60208301905092915050565b6000602082019050919050565b60006110b88261104d565b6110c28185611058565b93506110cd83611069565b8060005b838110156110fe5781516110e58882611088565b97506110f0836110a0565b9250506001810190506110d1565b5085935050505092915050565b6000602082019050818103600083015261112581846110ad565b905092915050565b600081519050919050565b600082825260208201905092915050565b6000819050602082019050919050565b61116281610c5d565b82525050565b60006111748383611159565b60208301905092915050565b6000602082019050919050565b60006111988261112d565b6111a28185611138565b93506111ad83611149565b8060005b838110156111de5781516111c58882611168565b97506111d083611180565b9250506001810190506111b1565b5085935050505092915050565b600081519050919050565b600082825260208201905092915050565b6000819050602082019050919050565b600081519050919050565b600082825260208201905092915050565b60005b83811015611251578082015181840152602081019050611236565b60008484015250505050565b600061126882611217565b6112728185611222565b9350611282818560208601611233565b61128b81610ca5565b840191505092915050565b60006112a2838361125d565b905092915050565b6000602082019050919050565b60006112c2826111eb565b6112cc81856111f6565b9350836020820285016112de85611207565b8060005b8581101561131a57848403895281516112fb8582611296565b9450611306836112aa565b925060208a019950506001810190506112e2565b50829750879550505050505092915050565b600081519050919050565b600082825260208201905092915050565b6000819050602082019050919050565b600082825260208201905092915050565b60006113748261104d565b61137e8185611358565b935061138983611069565b8060005b838110156113ba5781516113a18882611088565b97506113ac836110a0565b92505060018101905061138d565b5085935050505092915050565b60006113d38383611369565b905092915050565b6000602082019050919050565b60006113f38261132c565b6113fd8185611337565b93508360208202850161140f85611348565b8060005b8581101561144b578484038952815161142c85826113c7565b9450611437836113db565b925060208a01995050600181019050611413565b50829750879550505050505092915050565b6000610120820190508181036000830152611478818c6110ad565b9050818103602083015261148c818b61118d565b905081810360408301526114a0818a6112b7565b905081810360608301526114b481896112b7565b905081810360808301526114c881886110ad565b905081810360a08301526114dc81876110ad565b905081810360c08301526114f081866112b7565b905081810360e083015261150481856112b7565b905081810361010083015261151981846113e8565b90509a9950505050505050505050565b60006020828403121561153f5761153e610c33565b5b600061154d84828501610e02565b91505092915050565b7f4e487b7100000000000000000000000000000000000000000000000000000000600052601160045260246000fd5b600061159082610de1565b915061159b83610de1565b92508282019050808211156115b3576115b2611556565b5b92915050565b7f4e487b7100000000000000000000000000000000000000000000000000000000600052602260045260246000fd5b6000600282049050600182168061160057607f821691505b602082108103611613576116126115b9565b5b50919050565b60008190508160005260206000209050919050565b60006020601f8301049050919050565b600082821b905092915050565b60006008830261167b7fffffffffffffffffffffffffffffffffffffffffffffffffffffffffffffffff8261163e565b611685868361163e565b95508019841693508086168417925050509392505050565b6000819050919050565b60006116c26116bd6116b884610de1565b61169d565b610de1565b9050919050565b6000819050919050565b6116dc836116a7565b6116f06116e8826116c9565b84845461164b565b825550505050565b600090565b6117056116f8565b6117108184846116d3565b505050565b5b81811015611734576117296000826116fd565b600181019050611716565b5050565b601f8211156117795761174a81611619565b6117538461162e565b81016020851015611762578190505b61177661176e8561162e565b830182611715565b50505b505050565b600082821c905092915050565b600061179c6000198460080261177e565b1980831691505092915050565b60006117b5838361178b565b9150826002028217905092915050565b6117ce82611217565b67ffffffffffffffff8111156117e7576117e6610cb6565b5b6117f182546115e8565b6117fc828285611738565b600060209050601f83116001811461182f576000841561181d578287015190505b61182785826117a9565b86555061188f565b601f19841661183d86611619565b60005b8281101561186557848901518255600182019150602085019450602081019050611840565b86831015611882578489015161187e601f89168261178b565b8355505b6001600288020188555050505b505050505050565b7f4e487b7100000000000000000000000000000000000000000000000000000000600052603260045260246000fd5b60006118d182610de1565b91507fffffffffffffffffffffffffffffffffffffffffffffffffffffffffffffffff820361190357611902611556565b5b600182019050919050565b600061191982610de1565b915061192483610de1565b925082820390508181111561193c5761193b611556565b5b9291505056fea2646970667358221220d39146d333a6305dde9c1b4e1fbc6b4cef0566c097f7c4839798d323770d593064736f6c63430008110033",
  "immutableReferences": {},
  "source": "// SPDX-License-Identifier: MIT\npragma solidity >=0.4.22 <0.9.0;\n\ncontract rooms {\n\n  uint reqcount=0;\n  address[] _customers;\n  string[] _aadhars;\n  string[] _city;\n  uint[] _noofrooms;\n  uint[] _noofdays;\n  string[] _dates;\n  string[] _noofadults;\n  uint[][] _roomids;\n  uint[] _roomreq;\n\n  uint totalrooms=10;\n  uint[] status=[0,0,0,0,0,0,0,0,0,0]; \n  \n  function roomrequest(address customer,string memory aadhar,string memory city,uint noofrooms,uint noofdays,string memory date,string memory noofadults) public{\n\n    reqcount+=1;\n    _roomreq.push(reqcount);\n    _customers.push(customer);\n    _aadhars.push(aadhar);\n    _city.push(city);\n    _noofrooms.push(noofrooms);\n    _noofdays.push(noofdays);\n    _dates.push(date);\n    _noofadults.push(noofadults);\n    _roomids.push([0]);\n  } \n\n  function viewrequests() public view returns(uint[] memory,address[] memory,string[] memory,string[] memory,uint[] memory,uint[] memory,string[] memory,string[] memory,uint[][] memory){\n    return(_roomreq,_customers,_aadhars,_city,_noofrooms,_noofdays,_dates,_noofadults,_roomids);\n  }\n\n  function allocateroom(uint roomreq,uint[] memory id) public{\n    uint i;\n    uint j;\n\n    for(i=0;i<_roomreq.length;i++) {\n      if(roomreq==_roomreq[i]) {\n        _roomids[i]=id;\n      }\n    }\n\n    for(j=0;j<id.length;j++){\n      status[id[j]-1]=1;  \n    }\n  }\n\n  function viewroomstatus() public view returns(uint[] memory){\n    return(status);\n  }\n\n  function vacateroom(uint roomreq) public{\n    uint i;\n    uint j;\n    uint[] memory id;\n\n    for(i=0;i<_roomreq.length;i++){\n      if(roomreq==_roomreq[i]){\n          id=_roomids[i];\n          _roomids[i]=[100];\n      }\n    }\n    for(j=0;j<id.length;j++){\n      status[id[j]-1]=0;\n    }\n  }\n}\n",
  "sourcePath": "/Users/ms/Desktop/Design-and-implementation-of-Hotel-reservation-System-using-python-and-PHP/contracts/rooms.sol",
  "compiler": {
    "name": "solc",
    "version": "0.8.17+commit.8df45f5f.Emscripten.clang"
  },
  "schemaVersion": "3.4.8",
  "updatedAt": "2023-02-02T19:55:44.693Z",
  "networkType": "ethereum",
  "devdoc": {
    "kind": "dev",
    "methods": {},
    "version": 1
  },
  "userdoc": {
    "kind": "user",
    "methods": {},
    "version": 1
  }
}