{
  "contractName": "rooms",
  "abi": [
    {
      "inputs": [
        {
          "internalType": "address",
          "name": "customer",
          "type": "address"
        },
        {
          "internalType": "string",
          "name": "aadhar",
          "type": "string"
        },
        {
          "internalType": "string",
          "name": "city",
          "type": "string"
        },
        {
          "internalType": "uint256",
          "name": "noofrooms",
          "type": "uint256"
        },
        {
          "internalType": "uint256",
          "name": "noofdays",
          "type": "uint256"
        },
        {
          "internalType": "string",
          "name": "date",
          "type": "string"
        },
        {
          "internalType": "string",
          "name": "noofadults",
          "type": "string"
        }
      ],
      "name": "roomrequest",
      "outputs": [],
      "stateMutability": "nonpayable",
      "type": "function"
    },
    {
      "inputs": [],
      "name": "viewrequests",
      "outputs": [
        {
          "internalType": "address[]",
          "name": "",
          "type": "address[]"
        },
        {
          "internalType": "string[]",
          "name": "",
          "type": "string[]"
        },
        {
          "internalType": "string[]",
          "name": "",
          "type": "string[]"
        },
        {
          "internalType": "uint256[]",
          "name": "",
          "type": "uint256[]"
        },
        {
          "internalType": "uint256[]",
          "name": "",
          "type": "uint256[]"
        },
        {
          "internalType": "string[]",
          "name": "",
          "type": "string[]"
        },
        {
          "internalType": "string[]",
          "name": "",
          "type": "string[]"
        },
        {
          "internalType": "uint256[][]",
          "name": "",
          "type": "uint256[][]"
        }
      ],
      "stateMutability": "view",
      "type": "function",
      "constant": true
    },
    {
      "inputs": [
        {
          "internalType": "address",
          "name": "customer",
          "type": "address"
        },
        {
          "internalType": "uint256[]",
          "name": "id",
          "type": "uint256[]"
        }
      ],
      "name": "allocateroom",
      "outputs": [],
      "stateMutability": "nonpayable",
      "type": "function"
    },
    {
      "inputs": [],
      "name": "viewroomstatus",
      "outputs": [
        {
          "internalType": "uint256[]",
          "name": "",
          "type": "uint256[]"
        }
      ],
      "stateMutability": "view",
      "type": "function",
      "constant": true
    },
    {
      "inputs": [
        {
          "internalType": "address",
          "name": "customer",
          "type": "address"
        }
      ],
      "name": "vacateroom",
      "outputs": [],
      "stateMutability": "nonpayable",
      "type": "function"
    }
  ],
  "bytecode": "0x6080604052600a600855604051806101400160405280600060ff168152602001600060ff168152602001600060ff168152602001600060ff168152602001600060ff168152602001600060ff168152602001600060ff168152602001600060ff168152602001600060ff168152602001600060ff16815250600990600a620000899291906200009e565b503480156200009757600080fd5b5062000114565b828054828255906000526020600020908101928215620000e2579160200282015b82811115620000e1578251829060ff16905591602001919060010190620000bf565b5b509050620000f19190620000f5565b5090565b5b8082111562000110576000816000905550600101620000f6565b5090565b6118e880620001246000396000f3fe608060405234801561001057600080fd5b50600436106100575760003560e01c80630f1195961461005c5780631d225f0f14610078578063699ae9e114610094578063818f086a146100b257806384ff6291146100d7575b600080fd5b61007660048036038101906100719190610dd1565b6100f3565b005b610092600480360381019061008d9190610ee3565b6102ce565b005b61009c61044a565b6040516100a99190610fce565b60405180910390f35b6100ba6104a2565b6040516100ce989796959493929190611320565b60405180910390f35b6100f160048036038101906100ec919061149e565b6109e9565b005b6000879080600181540180825580915050600190039060005260206000200160009091909190916101000a81548173ffffffffffffffffffffffffffffffffffffffff021916908373ffffffffffffffffffffffffffffffffffffffff16021790555060018690806001815401808255809150506001900390600052602060002001600090919091909150908161018a9190611706565b506002859080600181540180825580915050600190039060005260206000200160009091909190915090816101bf9190611706565b50600384908060018154018082558091505060019003906000526020600020016000909190919091505560048390806001815401808255809150506001900390600052602060002001600090919091909150556005829080600181540180825580915050600190039060005260206000200160009091909190915090816102469190611706565b5060068190806001815401808255809150506001900390600052602060002001600090919091909150908161027b9190611706565b5060076040518060200160405280600060ff16815250908060018154018082558091505060019003906000526020600020016000909190919091509060016102c4929190610b27565b5050505050505050565b6000806060600092505b6000805490508310156103d957600083815481106102f9576102f86117d8565b5b9060005260206000200160009054906101000a900473ffffffffffffffffffffffffffffffffffffffff1673ffffffffffffffffffffffffffffffffffffffff168473ffffffffffffffffffffffffffffffffffffffff16036103c6576007838154811061036a576103696117d8565b5b906000526020600020018054806020026020016040519081016040528092919081815260200182805480156103be57602002820191906000526020600020905b8154815260200190600101908083116103aa575b505050505090505b82806103d190611836565b9350506102d8565b600091505b805182101561044457600060096001838581518110610400576103ff6117d8565b5b6020026020010151610412919061187e565b81548110610423576104226117d8565b5b9060005260206000200181905550818061043c90611836565b9250506103de565b50505050565b6060600980548060200260200160405190810160405280929190818152602001828054801561049857602002820191906000526020600020905b815481526020019060010190808311610484575b5050505050905090565b606080606080606080606080600060016002600360046005600660078780548060200260200160405190810160405280929190818152602001828054801561053f57602002820191906000526020600020905b8160009054906101000a900473ffffffffffffffffffffffffffffffffffffffff1673ffffffffffffffffffffffffffffffffffffffff16815260200190600101908083116104f5575b5050505050975086805480602002602001604051908101604052809291908181526020016000905b8282101561061357838290600052602060002001805461058690611529565b80601f01602080910402602001604051908101604052809291908181526020018280546105b290611529565b80156105ff5780601f106105d4576101008083540402835291602001916105ff565b820191906000526020600020905b8154815290600101906020018083116105e257829003601f168201915b505050505081526020019060010190610567565b50505050965085805480602002602001604051908101604052809291908181526020016000905b828210156106e657838290600052602060002001805461065990611529565b80601f016020809104026020016040519081016040528092919081815260200182805461068590611529565b80156106d25780601f106106a7576101008083540402835291602001916106d2565b820191906000526020600020905b8154815290600101906020018083116106b557829003601f168201915b50505050508152602001906001019061063a565b5050505095508480548060200260200160405190810160405280929190818152602001828054801561073757602002820191906000526020600020905b815481526020019060010190808311610723575b505050505094508380548060200260200160405190810160405280929190818152602001828054801561078957602002820191906000526020600020905b815481526020019060010190808311610775575b5050505050935082805480602002602001604051908101604052809291908181526020016000905b8282101561085d5783829060005260206000200180546107d090611529565b80601f01602080910402602001604051908101604052809291908181526020018280546107fc90611529565b80156108495780601f1061081e57610100808354040283529160200191610849565b820191906000526020600020905b81548152906001019060200180831161082c57829003601f168201915b5050505050815260200190600101906107b1565b50505050925081805480602002602001604051908101604052809291908181526020016000905b828210156109305783829060005260206000200180546108a390611529565b80601f01602080910402602001604051908101604052809291908181526020018280546108cf90611529565b801561091c5780601f106108f15761010080835404028352916020019161091c565b820191906000526020600020905b8154815290600101906020018083116108ff57829003601f168201915b505050505081526020019060010190610884565b50505050915080805480602002602001604051908101604052809291908181526020016000905b828210156109c9578382906000526020600020018054806020026020016040519081016040528092919081815260200182805480156109b557602002820191906000526020600020905b8154815260200190600101908083116109a1575b505050505081526020019060010190610957565b505050509050975097509750975097509750975097509091929394959697565b600080600091505b600080549050821015610ab65760008281548110610a1257610a116117d8565b5b9060005260206000200160009054906101000a900473ffffffffffffffffffffffffffffffffffffffff1673ffffffffffffffffffffffffffffffffffffffff168473ffffffffffffffffffffffffffffffffffffffff1603610aa3578260078381548110610a8457610a836117d8565b5b906000526020600020019080519060200190610aa1929190610b79565b505b8180610aae90611836565b9250506109f1565b600090505b8251811015610b2157600160096001858481518110610add57610adc6117d8565b5b6020026020010151610aef919061187e565b81548110610b0057610aff6117d8565b5b90600052602060002001819055508080610b1990611836565b915050610abb565b50505050565b828054828255906000526020600020908101928215610b68579160200282015b82811115610b67578251829060ff16905591602001919060010190610b47565b5b509050610b759190610bc6565b5090565b828054828255906000526020600020908101928215610bb5579160200282015b82811115610bb4578251825591602001919060010190610b99565b5b509050610bc29190610bc6565b5090565b5b80821115610bdf576000816000905550600101610bc7565b5090565b6000604051905090565b600080fd5b600080fd5b600073ffffffffffffffffffffffffffffffffffffffff82169050919050565b6000610c2282610bf7565b9050919050565b610c3281610c17565b8114610c3d57600080fd5b50565b600081359050610c4f81610c29565b92915050565b600080fd5b600080fd5b6000601f19601f8301169050919050565b7f4e487b7100000000000000000000000000000000000000000000000000000000600052604160045260246000fd5b610ca882610c5f565b810181811067ffffffffffffffff82111715610cc757610cc6610c70565b5b80604052505050565b6000610cda610be3565b9050610ce68282610c9f565b919050565b600067ffffffffffffffff821115610d0657610d05610c70565b5b610d0f82610c5f565b9050602081019050919050565b82818337600083830152505050565b6000610d3e610d3984610ceb565b610cd0565b905082815260208101848484011115610d5a57610d59610c5a565b5b610d65848285610d1c565b509392505050565b600082601f830112610d8257610d81610c55565b5b8135610d92848260208601610d2b565b91505092915050565b6000819050919050565b610dae81610d9b565b8114610db957600080fd5b50565b600081359050610dcb81610da5565b92915050565b600080600080600080600060e0888a031215610df057610def610bed565b5b6000610dfe8a828b01610c40565b975050602088013567ffffffffffffffff811115610e1f57610e1e610bf2565b5b610e2b8a828b01610d6d565b965050604088013567ffffffffffffffff811115610e4c57610e4b610bf2565b5b610e588a828b01610d6d565b9550506060610e698a828b01610dbc565b9450506080610e7a8a828b01610dbc565b93505060a088013567ffffffffffffffff811115610e9b57610e9a610bf2565b5b610ea78a828b01610d6d565b92505060c088013567ffffffffffffffff811115610ec857610ec7610bf2565b5b610ed48a828b01610d6d565b91505092959891949750929550565b600060208284031215610ef957610ef8610bed565b5b6000610f0784828501610c40565b91505092915050565b600081519050919050565b600082825260208201905092915050565b6000819050602082019050919050565b610f4581610d9b565b82525050565b6000610f578383610f3c565b60208301905092915050565b6000602082019050919050565b6000610f7b82610f10565b610f858185610f1b565b9350610f9083610f2c565b8060005b83811015610fc1578151610fa88882610f4b565b9750610fb383610f63565b925050600181019050610f94565b5085935050505092915050565b60006020820190508181036000830152610fe88184610f70565b905092915050565b600081519050919050565b600082825260208201905092915050565b6000819050602082019050919050565b61102581610c17565b82525050565b6000611037838361101c565b60208301905092915050565b6000602082019050919050565b600061105b82610ff0565b6110658185610ffb565b93506110708361100c565b8060005b838110156110a1578151611088888261102b565b975061109383611043565b925050600181019050611074565b5085935050505092915050565b600081519050919050565b600082825260208201905092915050565b6000819050602082019050919050565b600081519050919050565b600082825260208201905092915050565b60005b838110156111145780820151818401526020810190506110f9565b60008484015250505050565b600061112b826110da565b61113581856110e5565b93506111458185602086016110f6565b61114e81610c5f565b840191505092915050565b60006111658383611120565b905092915050565b6000602082019050919050565b6000611185826110ae565b61118f81856110b9565b9350836020820285016111a1856110ca565b8060005b858110156111dd57848403895281516111be8582611159565b94506111c98361116d565b925060208a019950506001810190506111a5565b50829750879550505050505092915050565b600081519050919050565b600082825260208201905092915050565b6000819050602082019050919050565b600082825260208201905092915050565b600061123782610f10565b611241818561121b565b935061124c83610f2c565b8060005b8381101561127d5781516112648882610f4b565b975061126f83610f63565b925050600181019050611250565b5085935050505092915050565b6000611296838361122c565b905092915050565b6000602082019050919050565b60006112b6826111ef565b6112c081856111fa565b9350836020820285016112d28561120b565b8060005b8581101561130e57848403895281516112ef858261128a565b94506112fa8361129e565b925060208a019950506001810190506112d6565b50829750879550505050505092915050565b600061010082019050818103600083015261133b818b611050565b9050818103602083015261134f818a61117a565b90508181036040830152611363818961117a565b905081810360608301526113778188610f70565b9050818103608083015261138b8187610f70565b905081810360a083015261139f818661117a565b905081810360c08301526113b3818561117a565b905081810360e08301526113c781846112ab565b90509998505050505050505050565b600067ffffffffffffffff8211156113f1576113f0610c70565b5b602082029050602081019050919050565b600080fd5b600061141a611415846113d6565b610cd0565b9050808382526020820190506020840283018581111561143d5761143c611402565b5b835b8181101561146657806114528882610dbc565b84526020840193505060208101905061143f565b5050509392505050565b600082601f83011261148557611484610c55565b5b8135611495848260208601611407565b91505092915050565b600080604083850312156114b5576114b4610bed565b5b60006114c385828601610c40565b925050602083013567ffffffffffffffff8111156114e4576114e3610bf2565b5b6114f085828601611470565b9150509250929050565b7f4e487b7100000000000000000000000000000000000000000000000000000000600052602260045260246000fd5b6000600282049050600182168061154157607f821691505b602082108103611554576115536114fa565b5b50919050565b60008190508160005260206000209050919050565b60006020601f8301049050919050565b600082821b905092915050565b6000600883026115bc7fffffffffffffffffffffffffffffffffffffffffffffffffffffffffffffffff8261157f565b6115c6868361157f565b95508019841693508086168417925050509392505050565b6000819050919050565b60006116036115fe6115f984610d9b565b6115de565b610d9b565b9050919050565b6000819050919050565b61161d836115e8565b6116316116298261160a565b84845461158c565b825550505050565b600090565b611646611639565b611651818484611614565b505050565b5b818110156116755761166a60008261163e565b600181019050611657565b5050565b601f8211156116ba5761168b8161155a565b6116948461156f565b810160208510156116a3578190505b6116b76116af8561156f565b830182611656565b50505b505050565b600082821c905092915050565b60006116dd600019846008026116bf565b1980831691505092915050565b60006116f683836116cc565b9150826002028217905092915050565b61170f826110da565b67ffffffffffffffff81111561172857611727610c70565b5b6117328254611529565b61173d828285611679565b600060209050601f831160018114611770576000841561175e578287015190505b61176885826116ea565b8655506117d0565b601f19841661177e8661155a565b60005b828110156117a657848901518255600182019150602085019450602081019050611781565b868310156117c357848901516117bf601f8916826116cc565b8355505b6001600288020188555050505b505050505050565b7f4e487b7100000000000000000000000000000000000000000000000000000000600052603260045260246000fd5b7f4e487b7100000000000000000000000000000000000000000000000000000000600052601160045260246000fd5b600061184182610d9b565b91507fffffffffffffffffffffffffffffffffffffffffffffffffffffffffffffffff820361187357611872611807565b5b600182019050919050565b600061188982610d9b565b915061189483610d9b565b92508282039050818111156118ac576118ab611807565b5b9291505056fea26469706673582212203fa9e30bb2b6c1e3b2942d7771cf5f66f822cb90cc0e1f9f3aa2d8fa834d809e64736f6c63430008110033",
  "immutableReferences": {},
  "source": "// SPDX-License-Identifier: MIT\npragma solidity >=0.4.22 <0.9.0;\n\ncontract rooms {\n\n  address[] _customers;\n  string[] _aadhars;\n  string[] _city;\n  uint[] _noofrooms;\n  uint[] _noofdays;\n  string[] _dates;\n  string[] _noofadults;\n  uint[][] _roomids;\n\n  uint totalrooms=10;\n  uint[] status=[0,0,0,0,0,0,0,0,0,0]; \n  \n  function roomrequest(address customer,string memory aadhar,string memory city,uint noofrooms,uint noofdays,string memory date,string memory noofadults) public{\n\n    _customers.push(customer);\n    _aadhars.push(aadhar);\n    _city.push(city);\n    _noofrooms.push(noofrooms);\n    _noofdays.push(noofdays);\n    _dates.push(date);\n    _noofadults.push(noofadults);\n    _roomids.push([0]);\n  } \n\n  function viewrequests() public view returns(address[] memory,string[] memory,string[] memory,uint[] memory,uint[] memory,string[] memory,string[] memory,uint[][] memory){\n    return(_customers,_aadhars,_city,_noofrooms,_noofdays,_dates,_noofadults,_roomids);\n  }\n\n  function allocateroom(address customer,uint[] memory id) public{\n    uint i;\n    uint j;\n\n    for(i=0;i<_customers.length;i++){\n      if(customer==_customers[i]){\n        _roomids[i]=id;\n      }\n    }\n    for(j=0;j<id.length;j++){\n      status[id[j]-1]=1;  \n    }\n  }\n\n  function viewroomstatus() public view returns(uint[] memory){\n    return(status);\n  }\n\n  function vacateroom(address customer) public{\n    uint i;\n    uint j;\n    uint[] memory id;\n\n    for(i=0;i<_customers.length;i++){\n      if(customer==_customers[i]){\n          id=_roomids[i];\n      }\n    }\n    for(j=0;j<id.length;j++){\n      status[id[j]-1]=0;\n    }\n  }\n}\n",
  "sourcePath": "C:\\Users\\lenovo\\Desktop\\hotel reservation system using python and php\\contracts\\rooms.sol",
  "compiler": {
    "name": "solc",
    "version": "0.8.17+commit.8df45f5f.Emscripten.clang"
  },
  "schemaVersion": "3.4.11",
  "updatedAt": "2023-01-30T07:04:42.309Z",
  "networkType": "ethereum",
  "devdoc": {
    "kind": "dev",
    "methods": {},
    "version": 1
  },
  "userdoc": {
    "kind": "user",
    "methods": {},
    "version": 1
  }
}